:100000000C9434000C943E000C943E000C943E0082
:100010000C943E000C943E000C943E000C943E0068
:100020000C943E000C943E000C943E000C943E0058
:100030000C943E000C94B9000C943E000C943E00CD
:100040000C943E000C943E000C943E000C943E0038
:100050000C943E000C943E000C943E000C943E0028
:100060000C943E000C943E0011241FBECFEFD8E04C
:10007000DEBFCDBF0E9483000C94E0000C94000012
:10008000FC01408121E030E002C0220F331F6A955D
:10009000E2F7242B20830895FC01808121E030E0E9
:1000A00002C0220F331F6A95E2F7209582238083D6
:1000B0008181282321830895FC01908121E030E093
:1000C00002C0220F331F6A95E2F72095292320836F
:1000D0000895FC01408121E030E002C0220F331F6F
:1000E0006A95E2F7242720830895FC01808190E03F
:1000F00002C0959587956A95E2F780FF02C081E07E
:10010000089580E0089565E084E290E00E94400058
:1001100065E085E290E00E945C00E1E8F0E080812B
:100120008B7F8083808183608083EFE6F0E0808135
:100130008160808361E087E290E00E944C007894C7
:1001400061E086E290E00E947500811109C0E1E85B
:10015000F0E080818A7F8083808182608083F0CF1D
:10016000E1E8F0E080818B7F808380818360808301
:10017000E7CF1F920F920FB60F9211242F933F9348
:100180004F935F936F937F938F939F93AF93BF939F
:10019000EF93FF9365E085E290E00E946900FF9194
:1001A000EF91BF91AF919F918F917F916F915F91EF
:1001B0004F913F912F910F900FBE0F901F90189568
:0401C000F894FFCFE1
:00000001FF
