S00F00006932635F6275732E737265636E
S11300000C9434000C9451000C9451000C94510045
S11300100C9451000C9451000C9451000C94510018
S11300200C9451000C9451000C9451000C94510008
S11300300C9451000C946C000C9451000C945100DD
S11300400C9451000C9451000C9430010C945E01FA
S11300500C9451000C9451000C9451000C945100D8
S11300600C9451000C94510011241FBECFEFD8E022
S1130070DEBFCDBF11E0A0E0B1E0E8EFF3E002C0E5
S113008005900D92A234B107D9F721E0A2E4B1E0C2
S113009001C01D92A838B207E1F70E9453000C94E6
S11300A0FA010C9400000E94000187E690E00E948F
S11300B08801E1E8F0E080818A7F8083808182602A
S11300C08083EFE6F0E0808181608083789482E031
S11300D091E00E94B801FFCF1F920F920FB60F92CA
S11300E011241F932F933F934F935F936F937F93A9
S11300F08F939F93AF93BF93EF93FF93CF93DF932C
S113010000D0CDB7DEB780E390E39A8389838091F2
S11301100101823061F1833009F43FC0813009F07C
S113012056C08091000191E0980F90930001875090
S1130130803720F482E0809301014CC0983789F421
S113014080E291E00E94B801809142014AE0BE0140
S11301506F5F7F4F90E00E94C501CE0101960E941F
S1130160B8011092000181E08093010133C08091B5
S11301700001880F0E940F01182F0E942C011111F9
S113018004C083E08093010125C08FE391E00E94C5
S1130190B80181E0809301011DC08091000140E11C
S11301A0BE016F5F7F4F90E00E94C501CE010196B2
S11301B00E94B8018DE391E00E94B8018091420150
S11301C08F5F8093420181E08093010103C081E04D
S11301D0809301010F900F90DF91CF91FF91EF91E8
S11301E0BF91AF919F918F917F916F915F914F914B
S11301F03F912F911F910F900FBE0F901F90189554
S113020087B18F7C87B988B1806388B9E9EBF0E066
S113021080818C7F808388E98093B800089594EA74
S11302209093BC009091BC009923E4F78093BB00A9
S113023084E88093BC008091BC008823E4F780911B
S1130240B900887F883121F0803421F480E008955A
S113025080E0089581E0089584E98093BC000895C6
S11302601F920F920FB60F9211242F938F939F9387
S1130270EF93FF938091C0002091C6008C71E091B0
S11302804501EF5FEF7190914401E91739F0E09374
S11302904501F0E0E85BFE4F208301C082E09091CD
S11302A04301892B80934301FF91EF919F918F919B
S11302B02F910F900FBE0F901F9018951F920F92C1
S11302C00FB60F9211248F939F93EF93FF93909106
S11302D0470180914601981769F0E0914601EF5F6C
S11302E0EF71E0934601F0E0E859FE4F808180937E
S11302F0C60005C0E1ECF0E080818F7D8083FF9132
S1130300EF919F918F910F900FBE0F901F901895B2
S11303101092470110924601109245011092440137
S1130320282F392F33231CF422E02093C000907827
S11303309093C5008093C40088E98093C10086E04F
S11303408093C2000895209147012F5F2F719091EF
S113035046012917E1F3E22FF0E0E859FE4F8083CC
S113036020934701E1ECF0E080818062808308956E
S1130370CF93DF93EC0103C021960E94A3018881EF
S11303808111FACFDF91CF910895BB274A3031F420
S1130390992322F4BDE2909581959F4F0C94D1014D
S11303A0BB27FB015527AA27880F991FAA1FA4174B
S11303B010F0A41B83955051B9F7A05DAA3308F03F
S11303C0A95DA193009779F7B111B1931192CB0173
S11303D00C94EA01DC01FC01672F71917723E1F7AA
S11303E0329704C07C916D9370836291AE17BF07FE
S10B03F0C8F30895F894FFCF4F
S11303F807010D0A5363616E204932432D627573F8
S113040820666F7220646576696365733A0D0A0025
S11304180A204E756D626572206F66206465746586
S11304286374656420646576696365733A20002D96
S10504382D0091
S9030000FC
