:100000000C9434000C9451000C9451000C94510049
:100010000C9451000C9451000C9451000C9451001C
:100020000C9451000C9451000C9451000C9451000C
:100030000C9451000C9499010C9451000C945100B3
:100040000C9451000C9451000C9404020C94320254
:100050000C9451000C94AE010C9451000C9451007E
:100060000C9451000C94510011241FBECFEFD8E026
:10007000DEBFCDBF11E0A0E0B1E0E0EAF5E002C0F4
:1000800005900D92A831B107D9F721E0A8E1B1E0C0
:1000900001C01D92AD35B207E1F70E9448010C94F2
:1000A000CE020C94000085B1826085B985E08A9506
:1000B000F1F7000085B18D7F85B90895CF93C82FE2
:1000C000662321F085B1816085B903C085B18E7F3B
:1000D00085B98AB180618AB98AB180628AB98AB1E8
:1000E00080648AB98AB180688AB98BB18F778BB9FD
:1000F0008BB18F7B8BB98BB18F7D8BB98BB18F7EA1
:100100008BB9CC231CF48BB180688BB9C6FF03C0BC
:100110008BB180648BB9C5FF03C08BB180628BB992
:10012000C4FF03C08BB180618BB90E9453008BB1B7
:100130008F778BB98BB18F7B8BB98BB18F7D8BB95F
:100140008BB18F7E8BB9C3FF03C08BB180688BB935
:10015000C2FF03C08BB180648BB9C1FF03C08BB1F8
:1001600080628BB9C0FF03C08BB180618BB90E94E4
:1001700053008BB180618BB98BB180628BB98BB12D
:1001800080648BB98BB180688BB987EB9BE001975A
:10019000F1F700C00000CF91089560E00E945E007A
:1001A0000895611104C080580E94CD0008958054C4
:1001B0000E94CD00089581E00E94CD00089561E085
:1001C0000E945E000895CF93DF93FC0103C00E945C
:1001D000DF00FE01EF01219680818111F8CFDF91D0
:1001E000CF910895CF93C82F84B1816084B98AB12B
:1001F00080628AB984B1826084B98AB180618AB927
:100200008AB180628AB98AB180648AB98AB1806809
:100210008AB98FEF99EF0197F1F700C000008BB119
:1002200080628BB98BB180618BB90E9453008FE1E2
:100230009EE40197F1F700C000000E9453008FEF89
:1002400090E00197F1F700C000000E9453008FEF8B
:1002500090E00197F1F700C000008BB18F7E8BB961
:100260000E9453008FEF90E00197F1F700C000006B
:1002700088E20E94CD0088E00E94CD000E94DB0051
:1002800086E00E94CD008C2F0E94CD00CF91089572
:100290008CE00E94F20060E081E00E94D10080E0EA
:1002A00091E00E94E30061E083E00E94D10087E0DA
:1002B00091E00E94E30060E088E00E94D1008CE0C1
:1002C00091E00E94E30060E08DE00E94D1008EE0AA
:1002D00091E00E94E30061E088E00E94D10080E1AB
:1002E00091E00E94E300ECE7F0E08081806480838D
:1002F0008081807F8083EAE7F0E08081806880836E
:10030000808188608083808187608083E1E8F0E07D
:1003100080818B7F8083808183608083EFE6F0E043
:1003200080818160808387E690E00E945C027894FF
:10033000FFCF1F920F920FB60F9211248F93EF935E
:10034000FF93EAE7F0E0808180648083FF91EF9182
:100350008F910F900FBE0F901F9018951F920F92C4
:100360000FB60F9211242F933F934F935F936F9388
:100370007F938F939F93AF93BF93EF93FF93CF930D
:10038000DF9300D000D0CDB7DEB780E390E39A834F
:1003900089839C838B8360E088E00E94D10082E1A6
:1003A00091E00E94E30080917800909179004AE00A
:1003B000BE016F5F7F4F0E94990260E088E00E945B
:1003C000D100CE0101960E94E300CE0101960E9469
:1003D0008C0284E191E00E948C020F900F900F90AC
:1003E0000F90DF91CF91FF91EF91BF91AF919F91CE
:1003F0008F917F916F915F914F913F912F910F90CE
:100400000FBE0F901F9018951F920F920FB60F926C
:1004100011242F938F939F93EF93FF938091C000AC
:100420002091C6008C71E0911A01EF5FEF719091FD
:100430001901E91739F0E0931A01F0E0E35EFE4F8D
:10044000208301C082E090911801892B80931801CC
:10045000FF91EF919F918F912F910F900FBE0F9071
:100460001F9018951F920F920FB60F9211248F9321
:100470009F93EF93FF9390911C0180911B0198171C
:1004800069F0E0911B01EF5FEF71E0931B01F0E079
:10049000E35CFE4F80818093C60005C0E1ECF0E094
:1004A00080818F7D8083FF91EF919F918F910F903D
:1004B0000FBE0F901F90189510921C0110921B01F7
:1004C00010921A0110921901282F392F33231CF48E
:1004D00022E02093C00090789093C5008093C400E0
:1004E00088E98093C10086E08093C200089520913E
:1004F0001C012F5F2F7190911B012917E1F3E22F4F
:10050000F0E0E35CFE4F808320931C01E1ECF0E01F
:100510008081806280830895CF93DF93EC0103C0D4
:1005200021960E94770288818111FACFDF91CF91C5
:100530000895BB274A3031F4992322F4BDE2909507
:1005400081959F4F0C94A502BB27FB015527AA2735
:10055000880F991FAA1FA41710F0A41B8395505150
:10056000B9F7A05DAA3308F0A95DA193009779F7C8
:10057000B111B1931192CB010C94BE02DC01FC01CC
:10058000672F71917723E1F7329704C07C916D93C7
:1005900070836291AE17BF07C8F30895F894FFCF38
:1005A00076616C75653A006B65793A0061006200AE
:0805B000630020202020000060
:00000001FF
